{
    "contractName": "LookupContract",
    "abi": [
        {
            "inputs": [
                {
                    "internalType": "string",
                    "name": "_name",
                    "type": "string"
                },
                {
                    "internalType": "uint256",
                    "name": "_mobileNumber",
                    "type": "uint256"
                }
            ],
            "stateMutability": "nonpayable",
            "type": "constructor"
        },
        {
            "inputs": [
                {
                    "internalType": "string",
                    "name": "_name",
                    "type": "string"
                }
            ],
            "name": "getMobileNumber",
            "outputs": [
                {
                    "internalType": "uint256",
                    "name": "",
                    "type": "uint256"
                }
            ],
            "stateMutability": "view",
            "type": "function"
        },
        {
            "inputs": [
                {
                    "internalType": "string",
                    "name": "",
                    "type": "string"
                }
            ],
            "name": "myDirectory",
            "outputs": [
                {
                    "internalType": "uint256",
                    "name": "",
                    "type": "uint256"
                }
            ],
            "stateMutability": "view",
            "type": "function"
        },
        {
            "inputs": [
                {
                    "internalType": "string",
                    "name": "_name",
                    "type": "string"
                },
                {
                    "internalType": "uint256",
                    "name": "_mobileNumber",
                    "type": "uint256"
                }
            ],
            "name": "setMobileNumber",
            "outputs": [],
            "stateMutability": "nonpayable",
            "type": "function"
        }
    ],
    "bytecode": "608060405234801561001057600080fd5b5060405161040c38038061040c83398101604081905261002f9161009e565b806000836040516100409190610154565b90815260405190819003602001902055506101709050565b634e487b7160e01b600052604160045260246000fd5b60005b83811015610089578181015183820152602001610071565b83811115610098576000848401525b50505050565b600080604083850312156100b157600080fd5b82516001600160401b03808211156100c857600080fd5b818501915085601f8301126100dc57600080fd5b8151818111156100ee576100ee610058565b604051601f8201601f19908116603f0116810190838211818310171561011657610116610058565b8160405282815288602084870101111561012f57600080fd5b61014083602083016020880161006e565b602097909701519698969750505050505050565b6000825161016681846020870161006e565b9190910192915050565b61028d8061017f6000396000f3fe608060405234801561001057600080fd5b50600436106100415760003560e01c806314b3ee68146100465780639f1159211461006b578063fd8111e914610080575b600080fd5b61005961005436600461019a565b6100ab565b60405190815260200160405180910390f35b61007e6100793660046101d7565b6100d2565b005b61005961008e36600461019a565b805160208183018101805160008252928201919093012091525481565b600080826040516100bc919061021c565b9081526020016040518091039020549050919050565b806000836040516100e3919061021c565b908152604051908190036020019020555050565b634e487b7160e01b600052604160045260246000fd5b600082601f83011261011e57600080fd5b813567ffffffffffffffff80821115610139576101396100f7565b604051601f8301601f19908116603f01168101908282118183101715610161576101616100f7565b8160405283815286602085880101111561017a57600080fd5b836020870160208301376000602085830101528094505050505092915050565b6000602082840312156101ac57600080fd5b813567ffffffffffffffff8111156101c357600080fd5b6101cf8482850161010d565b949350505050565b600080604083850312156101ea57600080fd5b823567ffffffffffffffff81111561020157600080fd5b61020d8582860161010d565b95602094909401359450505050565b6000825160005b8181101561023d5760208186018101518583015201610223565b8181111561024c576000828501525b50919091019291505056fea264697066735822122070108fec34972c835ea18c5fa46397d106824f66a7c7ce40651d83a5ee468e3664736f6c634300080d0033",
    "sourcePath": "/Users/hemesky/Documents/Hedera_Projects/Hedera_FirstSmartContract/LookupContract.sol",
    "compiler": {
        "name": "solc",
        "version": "0.8.13+commit.abaa5c0e"
    },
    "functionHashes": {
        "getMobileNumber(string)": "14b3ee68",
        "myDirectory(string)": "fd8111e9",
        "setMobileNumber(string,uint256)": "9f115921"
    },
    "gasEstimates": {
        "creation": {
            "codeDepositCost": "130600",
            "executionCost": "infinite",
            "totalCost": "infinite"
        },
        "external": {
            "getMobileNumber(string)": "infinite",
            "myDirectory(string)": "infinite",
            "setMobileNumber(string,uint256)": "infinite"
        }
    }
}