{
	"data": {
		"bytecode": {
			"linkReferences": {},
			"object": "60806040523480156200001157600080fd5b50604051620007d7380380620007d783398181016040528101906200003791906200025c565b806000836040516200004a91906200030f565b908152602001604051809103902060006101000a81548163ffffffff021916908363ffffffff160217905550505062000328565b6000604051905090565b600080fd5b600080fd5b600080fd5b600080fd5b6000601f19601f8301169050919050565b7f4e487b7100000000000000000000000000000000000000000000000000000000600052604160045260246000fd5b620000e7826200009c565b810181811067ffffffffffffffff82111715620001095762000108620000ad565b5b80604052505050565b60006200011e6200007e565b90506200012c8282620000dc565b919050565b600067ffffffffffffffff8211156200014f576200014e620000ad565b5b6200015a826200009c565b9050602081019050919050565b60005b83811015620001875780820151818401526020810190506200016a565b8381111562000197576000848401525b50505050565b6000620001b4620001ae8462000131565b62000112565b905082815260208101848484011115620001d357620001d262000097565b5b620001e084828562000167565b509392505050565b600082601f8301126200020057620001ff62000092565b5b8151620002128482602086016200019d565b91505092915050565b600063ffffffff82169050919050565b62000236816200021b565b81146200024257600080fd5b50565b60008151905062000256816200022b565b92915050565b6000806040838503121562000276576200027562000088565b5b600083015167ffffffffffffffff8111156200029757620002966200008d565b5b620002a585828601620001e8565b9250506020620002b88582860162000245565b9150509250929050565b600081519050919050565b600081905092915050565b6000620002e582620002c2565b620002f18185620002cd565b93506200030381856020860162000167565b80840191505092915050565b60006200031d8284620002d8565b915081905092915050565b61049f80620003386000396000f3fe608060405234801561001057600080fd5b50600436106100415760003560e01c806314b3ee6814610046578063e222913314610076578063fd8111e914610092575b600080fd5b610060600480360381019061005b91906102cd565b6100c2565b60405161006d9190610335565b60405180910390f35b610090600480360381019061008b919061037c565b6100f9565b005b6100ac60048036038101906100a791906102cd565b61013a565b6040516100b99190610335565b60405180910390f35b600080826040516100d39190610452565b908152602001604051809103902060009054906101000a900463ffffffff169050919050565b8060008360405161010a9190610452565b908152602001604051809103902060006101000a81548163ffffffff021916908363ffffffff1602179055505050565b6000818051602081018201805184825260208301602085012081835280955050505050506000915054906101000a900463ffffffff1681565b6000604051905090565b600080fd5b600080fd5b600080fd5b600080fd5b6000601f19601f8301169050919050565b7f4e487b7100000000000000000000000000000000000000000000000000000000600052604160045260246000fd5b6101da82610191565b810181811067ffffffffffffffff821117156101f9576101f86101a2565b5b80604052505050565b600061020c610173565b905061021882826101d1565b919050565b600067ffffffffffffffff821115610238576102376101a2565b5b61024182610191565b9050602081019050919050565b82818337600083830152505050565b600061027061026b8461021d565b610202565b90508281526020810184848401111561028c5761028b61018c565b5b61029784828561024e565b509392505050565b600082601f8301126102b4576102b3610187565b5b81356102c484826020860161025d565b91505092915050565b6000602082840312156102e3576102e261017d565b5b600082013567ffffffffffffffff81111561030157610300610182565b5b61030d8482850161029f565b91505092915050565b600063ffffffff82169050919050565b61032f81610316565b82525050565b600060208201905061034a6000830184610326565b92915050565b61035981610316565b811461036457600080fd5b50565b60008135905061037681610350565b92915050565b600080604083850312156103935761039261017d565b5b600083013567ffffffffffffffff8111156103b1576103b0610182565b5b6103bd8582860161029f565b92505060206103ce85828601610367565b9150509250929050565b600081519050919050565b600081905092915050565b60005b8381101561040c5780820151818401526020810190506103f1565b8381111561041b576000848401525b50505050565b600061042c826103d8565b61043681856103e3565b93506104468185602086016103ee565b80840191505092915050565b600061045e8284610421565b91508190509291505056fea264697066735822122024d056a498be8040fa7520426c9640519c4c0f2cc8233a2c73c56c1d07f1241664736f6c634300080d0033",
			"opcodes": "PUSH1 0x80 PUSH1 0x40 MSTORE CALLVALUE DUP1 ISZERO PUSH3 0x11 JUMPI PUSH1 0x0 DUP1 REVERT JUMPDEST POP PUSH1 0x40 MLOAD PUSH3 0x7D7 CODESIZE SUB DUP1 PUSH3 0x7D7 DUP4 CODECOPY DUP2 DUP2 ADD PUSH1 0x40 MSTORE DUP2 ADD SWAP1 PUSH3 0x37 SWAP2 SWAP1 PUSH3 0x25C JUMP JUMPDEST DUP1 PUSH1 0x0 DUP4 PUSH1 0x40 MLOAD PUSH3 0x4A SWAP2 SWAP1 PUSH3 0x30F JUMP JUMPDEST SWAP1 DUP2 MSTORE PUSH1 0x20 ADD PUSH1 0x40 MLOAD DUP1 SWAP2 SUB SWAP1 KECCAK256 PUSH1 0x0 PUSH2 0x100 EXP DUP2 SLOAD DUP2 PUSH4 0xFFFFFFFF MUL NOT AND SWAP1 DUP4 PUSH4 0xFFFFFFFF AND MUL OR SWAP1 SSTORE POP POP POP PUSH3 0x328 JUMP JUMPDEST PUSH1 0x0 PUSH1 0x40 MLOAD SWAP1 POP SWAP1 JUMP JUMPDEST PUSH1 0x0 DUP1 REVERT JUMPDEST PUSH1 0x0 DUP1 REVERT JUMPDEST PUSH1 0x0 DUP1 REVERT JUMPDEST PUSH1 0x0 DUP1 REVERT JUMPDEST PUSH1 0x0 PUSH1 0x1F NOT PUSH1 0x1F DUP4 ADD AND SWAP1 POP SWAP2 SWAP1 POP JUMP JUMPDEST PUSH32 0x4E487B7100000000000000000000000000000000000000000000000000000000 PUSH1 0x0 MSTORE PUSH1 0x41 PUSH1 0x4 MSTORE PUSH1 0x24 PUSH1 0x0 REVERT JUMPDEST PUSH3 0xE7 DUP3 PUSH3 0x9C JUMP JUMPDEST DUP2 ADD DUP2 DUP2 LT PUSH8 0xFFFFFFFFFFFFFFFF DUP3 GT OR ISZERO PUSH3 0x109 JUMPI PUSH3 0x108 PUSH3 0xAD JUMP JUMPDEST JUMPDEST DUP1 PUSH1 0x40 MSTORE POP POP POP JUMP JUMPDEST PUSH1 0x0 PUSH3 0x11E PUSH3 0x7E JUMP JUMPDEST SWAP1 POP PUSH3 0x12C DUP3 DUP3 PUSH3 0xDC JUMP JUMPDEST SWAP2 SWAP1 POP JUMP JUMPDEST PUSH1 0x0 PUSH8 0xFFFFFFFFFFFFFFFF DUP3 GT ISZERO PUSH3 0x14F JUMPI PUSH3 0x14E PUSH3 0xAD JUMP JUMPDEST JUMPDEST PUSH3 0x15A DUP3 PUSH3 0x9C JUMP JUMPDEST SWAP1 POP PUSH1 0x20 DUP2 ADD SWAP1 POP SWAP2 SWAP1 POP JUMP JUMPDEST PUSH1 0x0 JUMPDEST DUP4 DUP2 LT ISZERO PUSH3 0x187 JUMPI DUP1 DUP3 ADD MLOAD DUP2 DUP5 ADD MSTORE PUSH1 0x20 DUP2 ADD SWAP1 POP PUSH3 0x16A JUMP JUMPDEST DUP4 DUP2 GT ISZERO PUSH3 0x197 JUMPI PUSH1 0x0 DUP5 DUP5 ADD MSTORE JUMPDEST POP POP POP POP JUMP JUMPDEST PUSH1 0x0 PUSH3 0x1B4 PUSH3 0x1AE DUP5 PUSH3 0x131 JUMP JUMPDEST PUSH3 0x112 JUMP JUMPDEST SWAP1 POP DUP3 DUP2 MSTORE PUSH1 0x20 DUP2 ADD DUP5 DUP5 DUP5 ADD GT ISZERO PUSH3 0x1D3 JUMPI PUSH3 0x1D2 PUSH3 0x97 JUMP JUMPDEST JUMPDEST PUSH3 0x1E0 DUP5 DUP3 DUP6 PUSH3 0x167 JUMP JUMPDEST POP SWAP4 SWAP3 POP POP POP JUMP JUMPDEST PUSH1 0x0 DUP3 PUSH1 0x1F DUP4 ADD SLT PUSH3 0x200 JUMPI PUSH3 0x1FF PUSH3 0x92 JUMP JUMPDEST JUMPDEST DUP2 MLOAD PUSH3 0x212 DUP5 DUP3 PUSH1 0x20 DUP7 ADD PUSH3 0x19D JUMP JUMPDEST SWAP2 POP POP SWAP3 SWAP2 POP POP JUMP JUMPDEST PUSH1 0x0 PUSH4 0xFFFFFFFF DUP3 AND SWAP1 POP SWAP2 SWAP1 POP JUMP JUMPDEST PUSH3 0x236 DUP2 PUSH3 0x21B JUMP JUMPDEST DUP2 EQ PUSH3 0x242 JUMPI PUSH1 0x0 DUP1 REVERT JUMPDEST POP JUMP JUMPDEST PUSH1 0x0 DUP2 MLOAD SWAP1 POP PUSH3 0x256 DUP2 PUSH3 0x22B JUMP JUMPDEST SWAP3 SWAP2 POP POP JUMP JUMPDEST PUSH1 0x0 DUP1 PUSH1 0x40 DUP4 DUP6 SUB SLT ISZERO PUSH3 0x276 JUMPI PUSH3 0x275 PUSH3 0x88 JUMP JUMPDEST JUMPDEST PUSH1 0x0 DUP4 ADD MLOAD PUSH8 0xFFFFFFFFFFFFFFFF DUP2 GT ISZERO PUSH3 0x297 JUMPI PUSH3 0x296 PUSH3 0x8D JUMP JUMPDEST JUMPDEST PUSH3 0x2A5 DUP6 DUP3 DUP7 ADD PUSH3 0x1E8 JUMP JUMPDEST SWAP3 POP POP PUSH1 0x20 PUSH3 0x2B8 DUP6 DUP3 DUP7 ADD PUSH3 0x245 JUMP JUMPDEST SWAP2 POP POP SWAP3 POP SWAP3 SWAP1 POP JUMP JUMPDEST PUSH1 0x0 DUP2 MLOAD SWAP1 POP SWAP2 SWAP1 POP JUMP JUMPDEST PUSH1 0x0 DUP2 SWAP1 POP SWAP3 SWAP2 POP POP JUMP JUMPDEST PUSH1 0x0 PUSH3 0x2E5 DUP3 PUSH3 0x2C2 JUMP JUMPDEST PUSH3 0x2F1 DUP2 DUP6 PUSH3 0x2CD JUMP JUMPDEST SWAP4 POP PUSH3 0x303 DUP2 DUP6 PUSH1 0x20 DUP7 ADD PUSH3 0x167 JUMP JUMPDEST DUP1 DUP5 ADD SWAP2 POP POP SWAP3 SWAP2 POP POP JUMP JUMPDEST PUSH1 0x0 PUSH3 0x31D DUP3 DUP5 PUSH3 0x2D8 JUMP JUMPDEST SWAP2 POP DUP2 SWAP1 POP SWAP3 SWAP2 POP POP JUMP JUMPDEST PUSH2 0x49F DUP1 PUSH3 0x338 PUSH1 0x0 CODECOPY PUSH1 0x0 RETURN INVALID PUSH1 0x80 PUSH1 0x40 MSTORE CALLVALUE DUP1 ISZERO PUSH2 0x10 JUMPI PUSH1 0x0 DUP1 REVERT JUMPDEST POP PUSH1 0x4 CALLDATASIZE LT PUSH2 0x41 JUMPI PUSH1 0x0 CALLDATALOAD PUSH1 0xE0 SHR DUP1 PUSH4 0x14B3EE68 EQ PUSH2 0x46 JUMPI DUP1 PUSH4 0xE2229133 EQ PUSH2 0x76 JUMPI DUP1 PUSH4 0xFD8111E9 EQ PUSH2 0x92 JUMPI JUMPDEST PUSH1 0x0 DUP1 REVERT JUMPDEST PUSH2 0x60 PUSH1 0x4 DUP1 CALLDATASIZE SUB DUP2 ADD SWAP1 PUSH2 0x5B SWAP2 SWAP1 PUSH2 0x2CD JUMP JUMPDEST PUSH2 0xC2 JUMP JUMPDEST PUSH1 0x40 MLOAD PUSH2 0x6D SWAP2 SWAP1 PUSH2 0x335 JUMP JUMPDEST PUSH1 0x40 MLOAD DUP1 SWAP2 SUB SWAP1 RETURN JUMPDEST PUSH2 0x90 PUSH1 0x4 DUP1 CALLDATASIZE SUB DUP2 ADD SWAP1 PUSH2 0x8B SWAP2 SWAP1 PUSH2 0x37C JUMP JUMPDEST PUSH2 0xF9 JUMP JUMPDEST STOP JUMPDEST PUSH2 0xAC PUSH1 0x4 DUP1 CALLDATASIZE SUB DUP2 ADD SWAP1 PUSH2 0xA7 SWAP2 SWAP1 PUSH2 0x2CD JUMP JUMPDEST PUSH2 0x13A JUMP JUMPDEST PUSH1 0x40 MLOAD PUSH2 0xB9 SWAP2 SWAP1 PUSH2 0x335 JUMP JUMPDEST PUSH1 0x40 MLOAD DUP1 SWAP2 SUB SWAP1 RETURN JUMPDEST PUSH1 0x0 DUP1 DUP3 PUSH1 0x40 MLOAD PUSH2 0xD3 SWAP2 SWAP1 PUSH2 0x452 JUMP JUMPDEST SWAP1 DUP2 MSTORE PUSH1 0x20 ADD PUSH1 0x40 MLOAD DUP1 SWAP2 SUB SWAP1 KECCAK256 PUSH1 0x0 SWAP1 SLOAD SWAP1 PUSH2 0x100 EXP SWAP1 DIV PUSH4 0xFFFFFFFF AND SWAP1 POP SWAP2 SWAP1 POP JUMP JUMPDEST DUP1 PUSH1 0x0 DUP4 PUSH1 0x40 MLOAD PUSH2 0x10A SWAP2 SWAP1 PUSH2 0x452 JUMP JUMPDEST SWAP1 DUP2 MSTORE PUSH1 0x20 ADD PUSH1 0x40 MLOAD DUP1 SWAP2 SUB SWAP1 KECCAK256 PUSH1 0x0 PUSH2 0x100 EXP DUP2 SLOAD DUP2 PUSH4 0xFFFFFFFF MUL NOT AND SWAP1 DUP4 PUSH4 0xFFFFFFFF AND MUL OR SWAP1 SSTORE POP POP POP JUMP JUMPDEST PUSH1 0x0 DUP2 DUP1 MLOAD PUSH1 0x20 DUP2 ADD DUP3 ADD DUP1 MLOAD DUP5 DUP3 MSTORE PUSH1 0x20 DUP4 ADD PUSH1 0x20 DUP6 ADD KECCAK256 DUP2 DUP4 MSTORE DUP1 SWAP6 POP POP POP POP POP POP PUSH1 0x0 SWAP2 POP SLOAD SWAP1 PUSH2 0x100 EXP SWAP1 DIV PUSH4 0xFFFFFFFF AND DUP2 JUMP JUMPDEST PUSH1 0x0 PUSH1 0x40 MLOAD SWAP1 POP SWAP1 JUMP JUMPDEST PUSH1 0x0 DUP1 REVERT JUMPDEST PUSH1 0x0 DUP1 REVERT JUMPDEST PUSH1 0x0 DUP1 REVERT JUMPDEST PUSH1 0x0 DUP1 REVERT JUMPDEST PUSH1 0x0 PUSH1 0x1F NOT PUSH1 0x1F DUP4 ADD AND SWAP1 POP SWAP2 SWAP1 POP JUMP JUMPDEST PUSH32 0x4E487B7100000000000000000000000000000000000000000000000000000000 PUSH1 0x0 MSTORE PUSH1 0x41 PUSH1 0x4 MSTORE PUSH1 0x24 PUSH1 0x0 REVERT JUMPDEST PUSH2 0x1DA DUP3 PUSH2 0x191 JUMP JUMPDEST DUP2 ADD DUP2 DUP2 LT PUSH8 0xFFFFFFFFFFFFFFFF DUP3 GT OR ISZERO PUSH2 0x1F9 JUMPI PUSH2 0x1F8 PUSH2 0x1A2 JUMP JUMPDEST JUMPDEST DUP1 PUSH1 0x40 MSTORE POP POP POP JUMP JUMPDEST PUSH1 0x0 PUSH2 0x20C PUSH2 0x173 JUMP JUMPDEST SWAP1 POP PUSH2 0x218 DUP3 DUP3 PUSH2 0x1D1 JUMP JUMPDEST SWAP2 SWAP1 POP JUMP JUMPDEST PUSH1 0x0 PUSH8 0xFFFFFFFFFFFFFFFF DUP3 GT ISZERO PUSH2 0x238 JUMPI PUSH2 0x237 PUSH2 0x1A2 JUMP JUMPDEST JUMPDEST PUSH2 0x241 DUP3 PUSH2 0x191 JUMP JUMPDEST SWAP1 POP PUSH1 0x20 DUP2 ADD SWAP1 POP SWAP2 SWAP1 POP JUMP JUMPDEST DUP3 DUP2 DUP4 CALLDATACOPY PUSH1 0x0 DUP4 DUP4 ADD MSTORE POP POP POP JUMP JUMPDEST PUSH1 0x0 PUSH2 0x270 PUSH2 0x26B DUP5 PUSH2 0x21D JUMP JUMPDEST PUSH2 0x202 JUMP JUMPDEST SWAP1 POP DUP3 DUP2 MSTORE PUSH1 0x20 DUP2 ADD DUP5 DUP5 DUP5 ADD GT ISZERO PUSH2 0x28C JUMPI PUSH2 0x28B PUSH2 0x18C JUMP JUMPDEST JUMPDEST PUSH2 0x297 DUP5 DUP3 DUP6 PUSH2 0x24E JUMP JUMPDEST POP SWAP4 SWAP3 POP POP POP JUMP JUMPDEST PUSH1 0x0 DUP3 PUSH1 0x1F DUP4 ADD SLT PUSH2 0x2B4 JUMPI PUSH2 0x2B3 PUSH2 0x187 JUMP JUMPDEST JUMPDEST DUP2 CALLDATALOAD PUSH2 0x2C4 DUP5 DUP3 PUSH1 0x20 DUP7 ADD PUSH2 0x25D JUMP JUMPDEST SWAP2 POP POP SWAP3 SWAP2 POP POP JUMP JUMPDEST PUSH1 0x0 PUSH1 0x20 DUP3 DUP5 SUB SLT ISZERO PUSH2 0x2E3 JUMPI PUSH2 0x2E2 PUSH2 0x17D JUMP JUMPDEST JUMPDEST PUSH1 0x0 DUP3 ADD CALLDATALOAD PUSH8 0xFFFFFFFFFFFFFFFF DUP2 GT ISZERO PUSH2 0x301 JUMPI PUSH2 0x300 PUSH2 0x182 JUMP JUMPDEST JUMPDEST PUSH2 0x30D DUP5 DUP3 DUP6 ADD PUSH2 0x29F JUMP JUMPDEST SWAP2 POP POP SWAP3 SWAP2 POP POP JUMP JUMPDEST PUSH1 0x0 PUSH4 0xFFFFFFFF DUP3 AND SWAP1 POP SWAP2 SWAP1 POP JUMP JUMPDEST PUSH2 0x32F DUP2 PUSH2 0x316 JUMP JUMPDEST DUP3 MSTORE POP POP JUMP JUMPDEST PUSH1 0x0 PUSH1 0x20 DUP3 ADD SWAP1 POP PUSH2 0x34A PUSH1 0x0 DUP4 ADD DUP5 PUSH2 0x326 JUMP JUMPDEST SWAP3 SWAP2 POP POP JUMP JUMPDEST PUSH2 0x359 DUP2 PUSH2 0x316 JUMP JUMPDEST DUP2 EQ PUSH2 0x364 JUMPI PUSH1 0x0 DUP1 REVERT JUMPDEST POP JUMP JUMPDEST PUSH1 0x0 DUP2 CALLDATALOAD SWAP1 POP PUSH2 0x376 DUP2 PUSH2 0x350 JUMP JUMPDEST SWAP3 SWAP2 POP POP JUMP JUMPDEST PUSH1 0x0 DUP1 PUSH1 0x40 DUP4 DUP6 SUB SLT ISZERO PUSH2 0x393 JUMPI PUSH2 0x392 PUSH2 0x17D JUMP JUMPDEST JUMPDEST PUSH1 0x0 DUP4 ADD CALLDATALOAD PUSH8 0xFFFFFFFFFFFFFFFF DUP2 GT ISZERO PUSH2 0x3B1 JUMPI PUSH2 0x3B0 PUSH2 0x182 JUMP JUMPDEST JUMPDEST PUSH2 0x3BD DUP6 DUP3 DUP7 ADD PUSH2 0x29F JUMP JUMPDEST SWAP3 POP POP PUSH1 0x20 PUSH2 0x3CE DUP6 DUP3 DUP7 ADD PUSH2 0x367 JUMP JUMPDEST SWAP2 POP POP SWAP3 POP SWAP3 SWAP1 POP JUMP JUMPDEST PUSH1 0x0 DUP2 MLOAD SWAP1 POP SWAP2 SWAP1 POP JUMP JUMPDEST PUSH1 0x0 DUP2 SWAP1 POP SWAP3 SWAP2 POP POP JUMP JUMPDEST PUSH1 0x0 JUMPDEST DUP4 DUP2 LT ISZERO PUSH2 0x40C JUMPI DUP1 DUP3 ADD MLOAD DUP2 DUP5 ADD MSTORE PUSH1 0x20 DUP2 ADD SWAP1 POP PUSH2 0x3F1 JUMP JUMPDEST DUP4 DUP2 GT ISZERO PUSH2 0x41B JUMPI PUSH1 0x0 DUP5 DUP5 ADD MSTORE JUMPDEST POP POP POP POP JUMP JUMPDEST PUSH1 0x0 PUSH2 0x42C DUP3 PUSH2 0x3D8 JUMP JUMPDEST PUSH2 0x436 DUP2 DUP6 PUSH2 0x3E3 JUMP JUMPDEST SWAP4 POP PUSH2 0x446 DUP2 DUP6 PUSH1 0x20 DUP7 ADD PUSH2 0x3EE JUMP JUMPDEST DUP1 DUP5 ADD SWAP2 POP POP SWAP3 SWAP2 POP POP JUMP JUMPDEST PUSH1 0x0 PUSH2 0x45E DUP3 DUP5 PUSH2 0x421 JUMP JUMPDEST SWAP2 POP DUP2 SWAP1 POP SWAP3 SWAP2 POP POP JUMP INVALID LOG2 PUSH5 0x6970667358 0x22 SLT KECCAK256 0x24 0xD0 JUMP LOG4 SWAP9 0xBE DUP1 BLOCKHASH STATICCALL PUSH22 0x20426C9640519C4C0F2CC8233A2C73C56C1D07F12416 PUSH5 0x736F6C6343 STOP ADDMOD 0xD STOP CALLER "
		},
		"gasEstimates": {
			"creation": {
				"codeDepositCost": "236600",
				"executionCost": "infinite",
				"totalCost": "infinite"
			},
			"external": {
				"getMobileNumber(string)": "infinite",
				"myDirectory(string)": "infinite",
				"setMobileNumber(string,uint32)": "infinite"
			}
		},
		"methodIdentifiers": {
			"getMobileNumber(string)": "14b3ee68",
			"myDirectory(string)": "fd8111e9",
			"setMobileNumber(string,uint32)": "e2229133"
		}
	},
	"abi": [
		{
			"inputs": [
				{
					"internalType": "string",
					"name": "_name",
					"type": "string"
				},
				{
					"internalType": "uint32",
					"name": "_mobileNumber",
					"type": "uint32"
				}
			],
			"stateMutability": "nonpayable",
			"type": "constructor"
		},
		{
			"inputs": [
				{
					"internalType": "string",
					"name": "_name",
					"type": "string"
				}
			],
			"name": "getMobileNumber",
			"outputs": [
				{
					"internalType": "uint32",
					"name": "",
					"type": "uint32"
				}
			],
			"stateMutability": "view",
			"type": "function"
		},
		{
			"inputs": [
				{
					"internalType": "string",
					"name": "",
					"type": "string"
				}
			],
			"name": "myDirectory",
			"outputs": [
				{
					"internalType": "uint32",
					"name": "",
					"type": "uint32"
				}
			],
			"stateMutability": "view",
			"type": "function"
		},
		{
			"inputs": [
				{
					"internalType": "string",
					"name": "_name",
					"type": "string"
				},
				{
					"internalType": "uint32",
					"name": "_mobileNumber",
					"type": "uint32"
				}
			],
			"name": "setMobileNumber",
			"outputs": [],
			"stateMutability": "nonpayable",
			"type": "function"
		}
	]
}